:020000040800F2
:10000000585B002049030008C7450008533A000820
:10001000C54500087D100008F14E000800000000F2
:100020000000000000000000000000008D02000839
:100030004113000800000000E1020008C946000862
:1000400063030008630300086303000863030008F8
:1000500063030008630300086303000863030008E8
:1000600063030008630300086303000863030008D8
:100070006D120008630300086303000863030008AF
:100080007912000863030008630300088D1000085C
:10009000811000086303000863030008630300087D
:1000A0006303000863030008630300086303000898
:1000B0006303000863030008630300086303000888
:1000C0006303000863030008630300086303000878
:1000D00063030008914E0008A94E0008C14E0008B5
:1000E0006303000863030008630300086303000858
:1000F0006303000863030008630300086303000848
:100100006303000863030008630300086303000837
:100110006303000863030008C54700086303000881
:1001200063030008851200089112000863030008A9
:10013000630300086303000863030008A5100008B8
:1001400099100008630300086303000863030008B4
:10015000630300086303000863030008D94E000826
:1001600063030008630300086303000863030008D7
:100170006303000863030008630300080000000035
:1001800063030008630300086303000863030008B7
:1001900063030008630300086303000863030008A7
:1001A00000000000000000006303000800F002F8F7
:1001B00000F05CF80AA090E8000C82448344AAF1A5
:1001C0000107DA4501D100F051F8AFF2090EBAE8A3
:1001D0000F0013F0010F18BFFB1A43F0010318477B
:1001E00030950000509500000A444FF0000C10F8C4
:1001F000013B13F0070408BF10F8014B1D1108BFA5
:1002000010F8015B641E05D010F8016B641E01F844
:10021000016BF9D113F0080F1EBF10F8014BAD1C94
:100220000C1B09D16D1E58BF01F801CBFAD505E0B2
:1002300014F8016B01F8016B6D1EF9D59142D6D30C
:10024000704700000023002400250026103A28BF34
:1002500078C1FBD8520728BF30C148BF0B60704738
:100260001FB509F056F91FBD10B510BD00F06AF9B1
:100270001146FFF7F5FF06F063FF00F088F903B4BD
:10028000FFF7F2FF03BC00F089F900002B4B19685F
:100290000868B0E8F04F80F30988BFF36F8F4FF024
:1002A000000080F3118870470000000006480068D5
:1002B000006880F3088862B661B6BFF34F8FBFF362
:1002C0006F8F00DF00BF00BF08ED00E0DFF80C001B
:1002D000016841F470010160704700BF88ED00E0E3
:1002E000EFF30980BFF36F8F144B1A681EF0100FE5
:1002F00008BF20ED108A20E9F04F106008B44FF0DD
:10030000500080F31188BFF34F8FBFF36F8F08F059
:1003100099F84FF0000080F3118808BC196808684C
:10032000B0E8F04F1EF0100F08BFB0EC108A80F359
:100330000988BFF36F8F704700BF00BF0401002022
:10034000EFF30580704700000948804709480047DF
:10035000FEE7FEE7FEE7FEE7FEE7FEE7FEE7FEE775
:10036000FEE7FEE704480549054A064B70470000D2
:1003700071470008AD01000858550020585B002067
:100380005857002058570020032A40F2308010F0C0
:10039000030C00F0158011F8013BBCF1020F624420
:1003A00098BF11F801CB00F8013B38BF11F8013BB1
:1003B000A2F1040298BF00F801CB38BF00F8013B5E
:1003C00011F0030300F02580083AC0F0088051F8CE
:1003D000043B083A51F804CBA0E80810F5E7121DD9
:1003E0005CBF51F8043B40F8043BAFF30080D207F8
:1003F00024BF11F8013B11F801CB48BF11F8012BC4
:1004000024BF00F8013B00F801CB48BF00F8012BE6
:10041000704710B5203AC0F00B80B1E81850203A70
:10042000A0E81850B1E81850A0E81850BFF4F5AF94
:100430005FEA027C24BFB1E81850A0E8185044BF1E
:1004400018C918C0BDE810405FEA827C24BF51F88B
:10045000043B40F8043B08BF7047D20728BF31F87F
:10046000023B48BF11F8012B28BF20F8023B48BFD0
:1004700000F8012B704702F0FF0343EA032242EA2F
:10048000024200F037B84FF0000200B51346944620
:100490009646203922BFA0E80C50A0E80C50B1F1DC
:1004A0002001BFF4F7AF090728BFA0E80C5048BFF0
:1004B0000CC05DF804EB890028BF40F8042B08BF8E
:1004C000704748BF20F8022B11F0804F18BF00F88A
:1004D000012B704770477047704710B500F02AF83D
:1004E000006810BD10B5044600F024F8046010BD8B
:1004F0004FF000020429C0F0128010F0030C3FF40A
:10050000C4AFCCF1040CBCF1020F18BF00F8012BF2
:10051000A8BF20F8022BA1EB0C01FFF7B6BF5FEAE2
:10052000C17C24BF00F8012B00F8012B48BF00F864
:10053000012B704700487047F8540020004870476E
:10054000F85400207546FFF7F9FFAE4605006946EE
:10055000534620F00700854618B020B5FFF702FF8C
:10056000BDE820404FF000064FF000074FF00008B4
:100570004FF0000B21F00701AC46ACE8C009ACE835
:10058000C009ACE8C009ACE8C0098D467047044614
:10059000AFF300802046FFF772FE000001491820EB
:1005A000ABBEFEE726000200704700002DED0C8B6D
:1005B0009FED9B0A9B489C4D80ED050ADFED9B8AD1
:1005C0009B4CB8EE00BAB0EE008AF7EE00BA9FED91
:1005D00099CB9A4E9FED9ADB9FED9BAB06F10C07F2
:1005E000B5F9160000EE100AB5F91400B8EEC04ACD
:1005F00000EE100AB5F91200F8EEC03A00EE100A4B
:10060000B5F90400B8EEC03A00EE100AB5F90200E0
:10061000F8EEC02A00EE100AB5F90000B8EEC02AC4
:1006200000EE100AB5F91E00F8EEC01A00EE100A2E
:10063000B5F91C00B8EEC00A20EE281A00EE100A28
:10064000B5F91A00B8EEC00A60EE280A00EE100AEA
:10065000B8EEC00A20EE280A00F0FCF894ED020A79
:10066000D4ED020A94ED031A20EE0B0A20EE200AC4
:10067000D4ED030A60EE880A00EEC10A30EE2B0AC0
:1006800010EE100A08F0A4FE94ED010AD4ED020A5F
:1006900094ED031A20EE080A41EC190B20EE200A13
:1006A000D4ED000A60EE880A00EE810A10EE100A0E
:1006B00008F08EFE41EC100BB0EE491AF0EE691A0C
:1006C00004F05EFF53EC1C2B51EC100B08F0C0FB48
:1006D00008F02CF9306094ED010AD4ED030A94ED92
:1006E000021A20EE0B0A20EE200AD4ED000A60EE7A
:1006F000880A00EE810A10EE100A08F069FE41EC4B
:10070000100B04F021FC53EC1C2B51EC100B08F0E7
:100710009FFB08F00BF9706094ED010AD4ED010A1B
:1007200094ED021A20EE0B0A20EE200AD4ED020A04
:1007300060EE880A00EEC10A30EE2B0A10EE100AB5
:1007400008F046FE94ED020AD4ED030A94ED011A76
:1007500020EE080A41EC190B20EE200AD4ED000A25
:1007600060EE880A00EE810A10EE100A08F030FEF2
:1007700041EC100BB0EE491AF0EE691A04F000FFDC
:1007800053EC1D2B51EC100B08F062FB08F0CEF877
:10079000B060B5F9040008F007FB41EC190BB5F99E
:1007A000020008F001FB41EC100BB0EE491AF0EE2C
:1007B000691A04F0E5FE53EC1A2B51EC100B08F00B
:1007C00047FB08F0B3F83860B5F9040008F0ECFA1C
:1007D00041EC190BB5F9000008F0E6FA41EC100BFA
:1007E000B0EE491AF0EE691A04F0CAFE53EC1A2B67
:1007F00051EC100B08F02CFB08F098F8786096ED9F
:10080000010A1821124807F08BFC97ED010A192103
:100810000F4807F085FC052007F018F8E0E6000017
:1008200000000000B85300209653002058A08B3AD7
:100830007402002000000040DCA54CC0E053002002
:1008400000000040DCA54C400000006066A64C4063
:10085000F003002010B5FB4C2DED0A0B2DED108B95
:1008600084B0F0EE61DAB0EE42BAF0EE62AAB0EE19
:10087000448AB0EE63AAB0EE43DA94ED000AD4EDF8
:10088000000A20EE200A8DED010AD4ED000A94ED55
:10089000010A60EE80CA94ED000AD4ED020A60EE0F
:1008A000209A94ED000AD4ED030A60EE20FA94ED4C
:1008B000010AD4ED010A20EE20FA94ED010AD4EDEC
:1008C000020A60EE20EA94ED010AD4ED030A20EE5C
:1008D000209A94ED020AD4ED020A20EE20CA94ED8B
:1008E000020AD4ED030A60EE20BA94ED030AD4EDB7
:1008F000030A60EE208A2DEEAD0A0BEE0B0A0AEE1B
:10090000AA0A10EE100A08F063FD41EC100B05F086
:1009100061F851EC100B08F009F800EE100AB5EE82
:10092000C00AF1EE10FA7DD0CDEE800ACDED170AA7
:10093000CBEE000ACDED180ACAEE800A2DEE0D0AA4
:100940000AEE0A0A08EE080ACDED190A10EE100A9E
:1009500008F03EFD41EC100B05F03CF851EC100B9B
:1009600007F0E4FF00EE100AB5EEC00AF1EE10FA4F
:1009700058D0CAEE00AA79EE691A3EEEEF3ACDEDF4
:10098000001A88EE00AAB0EE008A21EE88EA7CEE1A
:10099000AB1A2AEE882ACDED021A61EE88DAF6EE5D
:1009A000001A8DEE00BA9DED010A2AEE081A30EE0B
:1009B0004F0A30EE4C0A30EE28DA31EECC0A6BEEFC
:1009C000082A30EE680A8DED030A62EE800A39EEDD
:1009D000290A8DED013A42EE030A31EECF3A73EE69
:1009E000681A41EE000A3EEEAF0A22EE800A60EE7F
:1009F000A00A02EE210A7BEEEC1A01EE210ADDEDDF
:100A0000001A62EEA18A7BEEAC1A73EE4CBA40EE8D
:100A1000000A42EE218A10EE900A41EE2B8A08F07D
:100A2000D7FC00E008E141EC100B04F0D3FF51ECDF
:100A3000100B07F07BFF00EE100A28EE882ADDED90
:100A4000001A20EE081A9DED030A9DED013ADDED36
:100A5000172A21EE000A61EE030A02EE210ADDEDFB
:100A6000021A42EE210A79EE891A21EE211ADDEDF1
:100A7000181A02EE2B1A61EE8D1A9DED192A42EE1C
:100A80006D1A2AEE812A0AEE602A6BEE200A4AEEDF
:100A9000C00A71EE821A9DED192A22EE0E2A02EE8C
:100AA000CD2A6AEE002A94ED050A4BEE412A32EE79
:100AB000221A9DED172ADDED182A22EE2D2A02EECC
:100AC000CE2A72EE200A94ED062A01EE802A84EDE9
:100AD000062A94ED072A01EE002A84ED072A94EDF8
:100AE000082A00EE802A84ED082A94ED060A94ED87
:100AF000042AD4ED002A02EE210ADDED141A70EE6C
:100B0000211A94ED070A02EE010A9DED151A30EE46
:100B1000010A94ED081A02EE201ADDED160A71EEB4
:100B2000200A94ED011A21EEC12A94ED021A01EE79
:100B3000402A94ED031A01EE602A9FED431A42EE1B
:100B4000012AC4ED002A94ED002AD4ED022A22EEF7
:100B5000212A02EEA02AD4ED032A02EEC02AD4ED07
:100B6000012A42EE012AC4ED012A94ED002AD4EDB7
:100B7000012A22EE002A02EEE02AD4ED032A02EE38
:100B8000A12AD4ED022A42EE012AC4ED022A94EDF4
:100B9000002A62EE200A94ED012A42EE000A94ED4A
:100BA000020A40EE610A94ED030A00EE810A84ED28
:100BB000030A94ED000AD4ED000A94ED011A20EE28
:100BC000200AD4ED010A00EE810AD4ED020A94ED68
:100BD000021A00EE810AD4ED030A94ED031A00EE26
:100BE000810A10EE100A08F0F3FB41EC100B04F040
:100BF000F1FE51EC100B07F099FE00EE100AB5EE75
:100C0000C00AF1EE10FA17D0D4ED000A80EE801A77
:100C100084ED001AD4ED010A80EE801A84ED011AE9
:100C2000D4ED020A80EE801A84ED021AD4ED030A94
:100C300080EE801A84ED031A04B0BDEC108B0AB06C
:100C400010BD0000740200200AD7233B2DE9F047B5
:100C5000E44C94ED150AD4ED160A30EE600ABDEEB0
:100C6000C00A10EE100A002800DA404200EE100A16
:100C7000B8EEC00A84ED190A94ED170AD4ED180AEB
:100C800030EE600ABDEEC00A10EE100A002800DA4D
:100C9000404200EE100AD44DB8EEC00A84ED1A0AA4
:100CA00095ED1A0A95ED0E2A30EE420ABDEEC00A05
:100CB00010EE100A002800DA404200EE100AF8EEAA
:100CC000C02AC4ED0F2A95ED190AD5ED0D1A30EEA4
:100CD000610ABDEEC00A10EE100A002800DA404298
:100CE00000EE100AB8EEC01A84ED101A95ED1B0A3A
:100CF000D5ED0F0A30EE600ABDEEC00A10EE100A04
:100D0000002800DA404200EE100A71EE810AB7496D
:100D1000B8EEC00AB64EB34B84ED110A32EE620A49
:100D2000C5ED010A85ED020AC5ED041A71EEC11A7E
:100D300085ED050AC5ED071A85ED080AC5ED0A0A15
:100D400085ED0B2A488A96ED052A93ED053A420671
:100D500005D5C20603D585ED0D2A85ED0E3AD5EDF4
:100D60000D1A8946010671EEC13A31EE811AC5EDC0
:100D7000103AD5ED0E3AC5ED113A85ED131A33EE62
:100D8000A21A85ED141AC5ED161A85ED171A05D5A8
:100D9000C00603D585ED192A85ED1A3ADFF854828D
:100DA0000127B8F81600F12813D1F4EE600AC6ED59
:100DB000050AF1EE10FA84ED050A7DD1F0EE400A45
:100DC000F4EE400AF1EE10FA76D1322006F03EFD44
:100DD000E761B8F81600F22817D195ED040A86ED00
:100DE000050AD5ED050AB4EE400AC4ED050AF1EE98
:100DF00010FA61D1B0EE600AB4EE600AF1EE10FABA
:100E00005AD1322006F022FDE761B8F81600F32827
:100E100017D1D5ED070AC6ED050A95ED080AF4EEDF
:100E2000600A84ED050AF1EE10FA45D1F0EE400AB1
:100E3000F4EE400AF1EE10FA3ED1322006F006FD43
:100E4000E761B8F81600E42817D1D5ED0A0AC6ED17
:100E5000050A95ED0B0AF4EE600A84ED050AF1EE41
:100E600010FA29D1F0EE400AF4EE400AF1EE10FA41
:100E700022D1322006F0EAFCE761B8F81600F52826
:100E800017D1D5ED0D0AC6ED050A95ED0E0AF4EE63
:100E9000600A84ED050AF1EE10FA7CD1F0EE400A0A
:100EA000F4EE400AF1EE10FA75D1322006F0CEFCD5
:100EB000E761B8F8160000E06DE0F62817D1D5ED2F
:100EC000100AC6ED050A95ED110AF4EE600A84EDEC
:100ED000050AF1EE10FA5ED1F0EE400AF4EE400A97
:100EE000F1EE10FA57D1322006F0B0FCE761B8F805
:100EF0001600F72817D1D5ED130AC6ED050A95EDB2
:100F0000140AF4EE600A84ED050AF1EE10FA42D1FB
:100F1000F0EE400AF4EE400AF1EE10FA3BD1322036
:100F200006F094FCE761B8F81600F82817D1D5ED63
:100F3000160AC6ED050A95ED170AF4EE600A84ED6F
:100F4000050AF1EE10FA26D1F0EE400AF4EE400A5E
:100F5000F1EE10FA1FD1322006F078FCE761B8F804
:100F60001600F92817D1D5ED190AC6ED050A95ED39
:100F70001A0AF4EE600A84ED050AF1EE10FA0AD1BD
:100F8000F0EE400AF4EE400AF1EE10FA03D13220FE
:100F900006F05CFCE76199F809000025022804D0FE
:100FA000E561A8F81650BDE8F087E1690029FAD09C
:100FB0000228F8D11049606B4843E16C0844E064B2
:100FC0000A2006F043FCA8F81650E561206B1E28A5
:100FD000E9DD0A4825630561E564606B40426063B2
:100FE000E1E7000008000020D44B00200849002061
:100FF000F4070020A0480020B7120200604800203B
:10100000292202490248FFF704BA000000001E0826
:10101000045400202921014800F002B804540020A3
:101020002DE9F041124C06460D46204600F004FB27
:10103000074601F0ADF90F4800210160022101616E
:101040000121C0E902710C4901F00CF940B1FEE741
:10105000002332782146184601F05CF9641C761CA6
:101060006D1EF5D201F04CF90020BDE8F0810000C2
:1010700000001E088C4800204C010020FEE7000004
:10108000014800F00BBC0000D8020020014800F02D
:1010900005BC0000D8020020014800F0FFBB0000A2
:1010A00018030020014800F0F9BB000018030020DD
:1010B00010B54FF4D872036802EB01129B5813F07D
:1010C0000404436B9C600468436BA45854D0E40848
:1010D0005C6003689A58436B02F00202DA604FF4D6
:1010E000DA72036802EB01129B58446B03F00F03A2
:1010F000236103689A58436BC2F30722DA614FF405
:10110000DC72036802EB01129B58446B2375036881
:101110009B58446B1B0A637503689B58446B1B0CFC
:10112000A37503689A58436B120EDA754FF4DE729A
:10113000036802EB01129B58446B237603689B58AB
:10114000446B1B0A637603689B58446B1B0CA376A5
:1011500003689A58436B120EDA7620220029016840
:101160000DD00A6101684A6922F010024A6190F8C4
:101170003810222909D021E0640D1C60A9E7CA605B
:1011800001684A6922F00202F0E701684A6922F424
:1011900080724A6101684A6922F400724A610168FA
:1011A0004A6922F480624A6101684A6922F4006255
:1011B0004A6101684A6922F400424A6190F8381095
:1011C000322907D05FF0010180F8381000F07EFD71
:1011D000002010BD1221F7E710B501684A6922F01E
:1011E00001024A6190F83810122918D101684A6941
:1011F00022F480724A6101684A6922F400724A61ED
:1012000001684A6922F480624A6101684A6922F4ED
:1012100000624A6101684A6922F400424A6190F81A
:101220003810322906D0012180F8381000F09CFED9
:10123000002010BD2221F7E70948417A00290DD08E
:1012400008490989A0F807100749098920F8051FEE
:101250005521417100210171FFF7DCBE704700008C
:10126000045400200848002034480020014800F0C1
:101270008FBE000070050020014800F089BE00000C
:1012800010050020014800F083BE0000D0050020BA
:10129000014800F07DBE0000B00400200168182362
:1012A000CAB2103AB2FBF3F2054B6FF30901032AFD
:1012B0009B5CC36500D9091D816508467047000025
:1012C000B095000810B5014600208B698A6A4FF07E
:1012D000C07453B1B3F5005F15D072B1012A0CD0C0
:1012E000022A0AD0032A09D104E01AB1012A06D041
:1012F000022A03D1C96AC90100D5012010BDC96AFB
:10130000A142FAD010BD002AF7D0012AF2D0022A59
:10131000F3D0032AF3D010BD30B50468256825F456
:1013200080252560046863608368402B036803D0D0
:1013300099600068C26030BD9A600068C16030BDCD
:1013400070470A7852B94A7842B98A7832B9CA786D
:1013500022B90A7912B94A79002A39D00A88C2F327
:101360000A02A2F5806202804A788B78D20842EAAB
:101370004312C2F30A02A2F5806242808A78CB78D7
:10138000920942EA83020B7942EA8322C2F30A02FB
:10139000A2F5806282800A794B79520842EAC31230
:1013A000C2F30A02A2F58062C2804A7992090272EF
:1013B0004A79C2F301124272CA8842810A89828143
:1013C0004A89C2810A7B02744A7B4274C98941827C
:1013D0007047FEE7002229B1012922D0022923D03B
:1013E0004FF440720B2800D9001D11490B6823F4FB
:1013F00040730B600B6813430B600A6822F0F8021D
:101400000A600A68F82393FAA3F3B3FA83F39840C7
:1014100040F0020002430A60086840F4803008602F
:1014200070474FF48072DDE74FF40072DAE7000096
:10143000103C02401348016889050FD5016821F46A
:1014400000710160016841F400610160016821F4EC
:1014500000610160016841F40071016001684905A3
:101460000FD5016821F480610160016841F4805169
:101470000160016821F480510160016841F48061DC
:1014800001607047003C02400E4A136823F4407329
:10149000136003290DD0012911680FD041F40041D8
:1014A000116011684FF4803343EA0020014311605A
:1014B0007047116848F204031943F1E741F0040151
:1014C000EEE70000103C0240064A136823F4407324
:1014D000136013681360136843F001031360017015
:1014E00070470000103C0240084910B50C6824F415
:1014F00040740C600C6844F440740C600C6844F058
:1015000001040C600260436010BD0000103C02400A
:10151000074A136823F440731360136843F480731D
:101520001360136843F001031360018070470000EB
:10153000103C0240074A136823F440731360136899
:1015400043F400731360136843F0010313600160F8
:1015500070470000103C02401F490868C043C206A3
:101560001E4805D4C26942F01002C26110220A600E
:101570000A68D243920605D4C26942F00802C261E9
:1015800020220A600A68D243520605D4C26942F09A
:101590000402C26140220A600A68D243120605D4DE
:1015A000C26942F00202C26180220A600A68D24324
:1015B000D20506D4C26942F00102C2614FF48072C2
:1015C0000A600A68D243920705D4C26942F0200239
:1015D000C2610220086070470C3C0240B8460020FF
:1015E00070B5134904460020C86100F0D1FF0646DB
:1015F000104D09E0601C07D024B100F0C9FF801B2A
:10160000A04201D9032070BD2868C043C003F1D5B2
:101610002868C00701D00120286029684FF4F970BC
:10162000884301D0002070BDFFF796FF012070BDF8
:10163000B84600200C3C024010B50021A0F1006328
:101640004FF48042934204D345490144914201D270
:10165000012182E043490144914201D202217CE010
:1016600041490144914201D2032176E03F494FF4C0
:1016700080330144994201D204216EE03C49441870
:101680004FF400318C4201D2052166E0394C04440C
:101690008C4201D2062160E0374C04448C4201D2D6
:1016A00007215AE0354C04448C4201D2082154E011
:1016B000334C04448C4201D209214EE0314C0444A5
:1016C0008C4201D20A2148E02F4C04448C4201D2C2
:1016D0000B2142E0A0F10164944201D20C213CE0D4
:1016E0002A4C0444944201D20D2136E0284C044493
:1016F000944201D20E2130E0264C0444944201D29F
:101700000F212AE0244A02449A4201D2102124E007
:10171000224A02448A4201D211211EE0204A024498
:101720008A4201D2122118E01E4A02448A4201D2A2
:10173000132112E01C4A02448A4201D214210CE017
:101740001A4A02448A4201D2152106E0184A10447E
:10175000884201D2162100E01721084610BD000082
:1017600000C0FFF70080FFF70040FFF70000FFF721
:101770000000FEF70000FCF70000FAF70000F8F7A1
:101780000000F6F70000F4F70000F2F700C0EFF7F2
:101790000080EFF70040EFF70000EFF70000EEF7F2
:1017A0000000ECF70000EAF70000E8F70000E6F7B9
:1017B0000000E4F7F0B50A7D01209040344A136838
:1017C00043F001031360136823F47C531360136820
:1017D0004C6A43EA042313602D4B1C331C6884437A
:1017E0001C602B4D2B4CCE690C35A6B92E68864358
:1017F0002E608F894E6867F31F464F6904EBC70759
:10180000C7F840660F890E6867F31F464F6904EBFF
:10181000C707C7F84466CE69012E14D12E68064367
:101820002E600E884D6866F31F454E6904EBC606B0
:10183000C6F840560E89CD6866F31F454E6904EB25
:10184000C604C4F84456124C8D69241D002D256829
:1018500006D0054325600E4C0D69143415B104E023
:101860008543F7E72568854325600D69012D02D181
:10187000256805432560096A012902D119680143D9
:101880001960106820F0010010600020F0BD000019
:1018900000660040006000407047000010B504463C
:1018A00000684169C943C90714D182685849914306
:1018B00068D000218368574A9A4365D00022836824
:1018C0005548984362D000201143014302D020467E
:1018D000FFF782FC2068C168406911F0030FC0F374
:1018E000400004D018B100212046FFF7E1FB216839
:1018F0000869496910F0030FC1F3001104D019B150
:1019000001212046FFF7D4FB20688169426911F06C
:10191000010FC2F300234269C2F3C03205D023B1E4
:101920001AB1E16B41F00101E1638169C1F3400348
:1019300041694269C1F34021C2F3C0322BB121B1E8
:101940001AB1E16B41F00201E16381694269C1F3BF
:101950008001C2F380234269C2F3C03229B123B1AE
:101960001AB1E16B41F00401E163816911F0700F7C
:101970000ED0002142694369C2F3C022C3F3C033D1
:1019800041B127E0012195E7012298E701209BE77B
:101990000121EFE7F2B1EBB1816901F0700140295B
:1019A00029D006DC102909D020290BD030290DD1EF
:1019B0001DE0502923D0602908D124E0E16B41F0DB
:1019C000080102E0E16B41F01001E163816921F05F
:1019D00070018161E06B002808D021680420486014
:1019E000012084F838002046FFF756FF10BDE16B58
:1019F00041F02001E9E7E16B41F04001E5E7E16BEF
:101A000041F08001E1E7E16B41F48071DDE7000026
:101A10000300000400030008000003102DE9F0415A
:101A2000040004D094F83800002518B107E0012024
:101A3000BDE8F08184F83950204600F093F8022088
:101A400084F838002068016821F0020101602068F4
:101A5000016841F00101016000F09AFD074603268C
:101A600005E000BF00F094FDC01B0A2863D8206881
:101A70004068C007F6D020684168C90768D0A169EE
:101A8000012901683FD021F080010160E06901284F
:101A9000206801683AD021F040010160206A0128E5
:101AA0002068016835D021F020010160606A0128BA
:101AB0002068016830D021F010010160A06A01287F
:101AC000206801682BD021F008010160E06A01283C
:101AD0002068016826D021F004010160D4E90201E8
:101AE0000843D4E90412114308436168491E0843BE
:101AF0002168C8612068016821F00101016000F0DF
:101B000047FD07461CE041F08001BEE741F040017F
:101B1000C3E741F02001C8E741F01001CDE741F0F3
:101B20000801D2E741F00401D7E700BF00F030FD23
:101B3000C01B0A2804D904F8386F0320657077E7C2
:101B400020684068C007F1D120684068C00703D012
:101B5000042084F838006AE7E563012084F838003F
:101B6000002065E7F0B5324B0768DFF8C0C01868A1
:101B70000322022409252F490026401C87B067450F
:101B800021D11860012807D1086840F00070086072
:101B9000086800F0007005908DE85400CDE9032539
:101BA0006946254800F008FC00220521132000F0BA
:101BB00089FD132000F07AFD00220521142000F099
:101BC00081FD14202EE0DFF874C067452CD10F682A
:101BD00047F080670F600F68012807F0806705975E
:101BE000186007D1086840F000700860086800F0CD
:101BF000007005904FF440508DE85100CDE9032569
:101C000069460F4800F0D8FB002211463F2000F043
:101C100059FD3F2000F04AFD00221146402000F00F
:101C200051FD402000F042FD07B0F0BD00640040CF
:101C30000400002040380240000C024000680040D0
:101C40000004024010B590F83820012A01D0122A71
:101C500039D190F83920012A35D0012280F8392075
:101C600090F83820122A29D05FF0220280F838201C
:101C70000022C26303685C6944F480745C61036899
:101C80005C6944F400745C6103685C6944F48064DA
:101C90005C6103685C6944F400645C6103685C69CE
:101CA00044F400445C6180F83920006800294169EF
:101CB00006D041F010014161002010BD3222D5E76D
:101CC00041F00201F7E7022010BD000070B5426B41
:101CD000014640F205251068374CA0F20523A842C2
:101CE0002BD008DC1A1D0ED0012A0CD0022A0AD0F3
:101CF000032A54D107E0012B24D0022B28D0B3F5BE
:101D0000FE7F4CD133E0401EC0B200EB4002207099
:101D100002EBC002294800EB8200826A531C8362F6
:101D2000322A02D804F00CFB01E004F0DFFA20783C
:101D300010F1020004F05EFA31E0214804F0D6FA16
:101D40000920F7E71E482C3804F0D0FA0A20F1E702
:101D50001B4A2C32906A401C90620A28104602D816
:101D600004F0EEFA01E004F0C1FA0B20E2E750695A
:101D7000D17D00BA20F0FF00084300EE100ADFED2D
:101D8000110A0120B8EEC00A20EE200A84ED010AF3
:101D900004F030FA0C4894ED010A80ED180A0B4863
:101DA0000068416941F002014161094800684169E8
:101DB00041F00201416170BD40010020D846002081
:101DC000344800200AD7233C50080020D8020020C5
:101DD000180300202DE9F05F0E460168044688686C
:101DE000400105D48868000102D48868C00067D526
:101DF00094F8390001280ED0012784F8397094F83E
:101E0000380022280AD0122084F83800886840015F
:101E100006D500250AE00220BDE8F09F3220F3E756
:101E20008868000101D5012500E002254FF4C0704B
:101E300000EB05100A5802F001020A50216B8A6873
:101E4000EAB3D4F800C05CF800301343CA684968AC
:101E500042EAC1010B434CF80030216B0A7C02F0CE
:101E60000F020A614FF4C271226801EB0511535849
:101E700023F00F03535022685358D4F830C0DCF8D5
:101E800010C043EA0C035350216B4FF4C47303EBAF
:101E900005130A7DD1F8151042EA01212268D150BC
:101EA000216B4FF4C67303EB05130A7ED1F81910AA
:101EB00042EA01212268D15021680A5801E00DE070
:101EC00046E042F001020A5000F062FB81464FF00A
:101ED0000008DFF888A0DFF888B019E022681358FE
:101EE000D1F80CC0098843EA0C0343EA4151115070
:101EF000B3E7701C0CD02EB100F04AFBA0EB090038
:101F0000B04205D9032084F8380084F8398083E78B
:101F100095B12068012D816813D0124888430028AC
:101F2000E7D194F8380032280ED084F8387000BF1A
:101F300084F8398000206FE7206881682AEA010070
:101F4000EDE72BEA0100EAE7222084F83800EFE70A
:101F5000042084F8380001205EE70000030000043C
:101F60000003000800000310704790F835100229A4
:101F700003D08021416501207047052180F835108C
:101F80000068016821F00101016000207047000035
:101F90002DE9F84304464FF00008CDF8008064486E
:101FA0004FF41651A56D0068B0FBF1F72E6894F858
:101FB0005C10082000FA01F131420FD021680A6854
:101FC00052070BD50A6822F004020A6094F85C10EC
:101FD0008840A860606D40F00100606594F85C1076
:101FE00054488840304208D021684969090604D520
:101FF000A860606D40F0020060654E4894F85C1087
:10200000C01C8840304208D021680968890704D57F
:10201000A860606D40F00400606594F85C101020CA
:102020008840304218D021680968090714D5A86093
:1020300020680168490304D50068000308D5A16C35
:1020400007E00168C90503D4016821F008010160B7
:10205000216C09B12046884794F85C102020884004
:1020600030424FF0010631D021680968C9062DD5EC
:10207000A86094F8350005282068016806D0490357
:1020800047D5006800031DD4616C1CE021F01601E7
:1020900001602068416921F080014161206C08B92C
:1020A000A06C20B12068016821F00801016094F85B
:1020B0005C103F208840A86084F8348084F8356044
:1020C000216D1FE0E16B09B120468847606D002853
:1020D0002BD0606DC00714D0052084F8350020682F
:1020E000016821F0010101600098401C0090B84295
:1020F00003D820680068C007F6D184F8348084F8DB
:102100003560E16C002910D001B02046BDE8F043F5
:1021100008470168C905D5D4016821F010010160A4
:1021200084F8348084F83560CCE7BDE8F88300009B
:10213000DC000020010080002DE9F041044600F0A1
:1021400027FA06465CB1002584F83450022084F852
:1021500035002068016821F0010101600DE00120D7
:10216000BDE8F08100F014FA801B052805D9202075
:102170006065032084F83500F2E720680068C00736
:10218000F0D1226811681F480140D4E901031843C7
:10219000D4E903363343184363691843A3691843EA
:1021A000E3691843236A18430843616A042903D189
:1021B000D4E90B1319430843106020684069666A2C
:1021C00020F0070130460E43012704280AD1A06AF7
:1021D00006432046FFF776F820B14020606584F87A
:1021E0003570BCE7206846612046FFF757F894F841
:1021F0005C203F2191408160656584F83570002046
:10220000AEE700003F8010F070B5044690F834004F
:10221000002501280CD0012084F8340094F83560A2
:102220000020012E06D084F834000225284670BD17
:10223000022070BD022684F8356060652046FFF7F5
:102240006BF82068016841F001010160EEE731B5EB
:1022500000F09EF9044600F09BF90099001B8842AB
:10226000F9D338BD2DE9F047044623480F46017ED7
:1022700001290AD00121804601764CF250394846A6
:10228000FFF7AEF9020003D030E00220BDE8F0878E
:102290004FF0FF3038602068184D012801D0A66843
:1022A0001DE0207C6168FFF7EFF84846FFF798F9DA
:1022B0000246286848F204018843286014E0217C23
:1022C0003046FFF787F84846FFF78AF9020028688A
:1022D00020F0FA00286001D03E6005E0761CD4E9C9
:1022E00002100844B042EAD8FFF7A4F8002188F8A9
:1022F00018101046CAE70000B8460020103C024003
:102300000348016841F0004101600020704700006F
:10231000103C02402DE9F0471B4E05461446307E26
:102320001F468946012808D0012030764CF25038EB
:102330004046FFF755F918B114E00220BDE8F087D8
:102340009DB1012D16D0022D19D022463B4648469C
:10235000FFF7CAF84046FFF743F90C490A6822F034
:1023600001020A6000213176E8E7E1B24846FFF752
:10237000ABF8EFE7A1B24846FFF7CAF8EAE7214613
:102380004846FFF7D7F8E5E7B8460020103C024082
:1023900006480068002807DA044805490C3801603F
:1023A000044901600020704701207047103C024042
:1023B00023016745AB89EFCD2DE9F84FDFF890B1E8
:1023C00000224FF001084FF0030A4FF00F090BF104
:1023D000040E00BF0B6808FA02F42340A3426ED13A
:1023E0004D68022D01D0122D0ED1D50800EB850CC1
:1023F000DCF820505607F70E09FA07F6B5430E69C8
:10240000BE402E43CCF82060066855000F790AFACA
:1024100005FC07F0030726EA0C06AF4037430760C8
:102420004E68012E05D0022E03D0112E01D0122E9F
:102430000ED18768CE6827EA0C07AE403E4386601F
:102440004668A6430C79C4F30014944034434460B6
:10245000C4688E6824EA0C04AE402643C6604C680B
:10246000E4006FD53B4C256845F480452560246821
:1024700022F0030504F480440094374C2E19D6F85A
:10248000084895072F0F09FA07F5AC43334DA842CA
:1024900001D100252EE0324DA84201D1012529E0CD
:1024A000304DA84201D1022524E02F4DA84201D190
:1024B00003251FE02D4DA84202D104251AE041E07A
:1024C0002B4DA84201D1052514E02A4DA84201D187
:1024D00006250FE0284DA84201D107250AE0274D27
:1024E000A84201D1082505E0254DA84201D10925C2
:1024F00000E00A25BD402543C6F80858DBF8004037
:102500005D464E689C43F60300D51C432C60DEF804
:10251000004075464E689C43B60300D51C432C60B2
:102520000B4D08352C684E689C43F60200D51C43C1
:102530002C60074D0C352C684E689C43B60200D5C4
:102540001C432C60521C102AFFF444AFBDE8F88FE6
:10255000003C01404438024000300140000002408D
:102560000004024000080240000C0240001002403B
:102570000014024000180240001C024000200240EB
:10258000002402400AB1816170470904FBE70000A2
:1025900001480068704700003C01002002480168C3
:1025A000491C0160704700003C0100200B4810B539
:1025B000016841F400710160016841F480610160CB
:1025C000016841F480710160032000F09BF8002055
:1025D00000F006F800F03EF8002010BD003C02407C
:1025E00010B5014688B00022362000F06BF8362086
:1025F00000F05CF813480024016841F0100101600C
:10260000006805A900F010000690684600F0A2F9E5
:1026100000F0C6F90C494000B0FBF1F10C480B4A40
:10262000491E026040F2E732C0E90324C0E9011408
:1026300000F04FFD10B1012008B010BD044800F0BB
:1026400064FDF9E74038024040420F0000100040AE
:102650009C02002010B5032000F054F8002211461F
:102660006FF00B0000F02EF8002211466FF00A0008
:1026700000F028F8002211466FF0090000F022F85F
:1026800000221146501F00F01DF800221146101FB5
:1026900000F018F800220F21901E00F013F800221D
:1026A0000F21BDE81040501E00F00CB800F01F02D2
:1026B000012191404009800000F1E020C0F80011A4
:1026C00070470000F0B40E4B1B680C46C3F30223A6
:1026D000C3F10705042D00D90425191D072901D2CE
:1026E000002300E0DB1E012606FA05F1491E214009
:1026F00099409E40761E16403143F0BC01F064BF05
:102700000CED00E0064900F0070208684FF6FF03F1
:10271000184040EA0220034A104308607047000056
:102720000CED00E00000FA05BFF34F8F054801688B
:10273000054A01F4E06111430160BFF34F8F00BF10
:10274000FDE700000CED00E00400FA052DE9F84378
:102750001E48016841F0805101600068012600F0C8
:1027600080500090300490FAA0F0194FB0FA80F039
:1027700047F82060FFF70CFF05464FF47A78154CB8
:1027800005E000BFFFF704FF401B404515D8606817
:10279000C003F7D54FF4003090FAA0F0B0FA80F003
:1027A00047F82060FFF7F4FE0546464608E000BF04
:1027B000FFF7EEFE401BB04202D90320BDE8F883CC
:1027C00060688003F4D50020F8E70000403802403C
:1027D00000000E42007000402DE9F047DFF86491E0
:1027E00005460F46D9F8000000F00F01F8B2804608
:1027F000B94208D2014689F80010D9F8000000F06B
:102800000F00B84274D128784F4C800705D5206856
:10281000A96820F0F000084320602878C00759D04C
:1028200049496868083901281AD002281BD00328B2
:1028300019D00968890700295ADA216821F00301B3
:1028400001432160FFF7A4FE6968064641F2883023
:10285000012911D002291DD00329824627D035E055
:1028600009688903E7E709688901E4E7FFF790FE53
:10287000811B514501D926E082462068C0F38100C2
:102880000128F3D126E000BFFFF782FE811B5145EE
:1028900001D918E082462068C0F381000228F3D1F4
:1028A00018E000BFFFF774FE811B51450BD820686C
:1028B000C0F381000328F5D10CE000BFFFF768FEEC
:1028C000811B514502D90320BDE8F087206810F034
:1028D0000C0FF3D1D9F80010484601F00F01B942AE
:1028E00008D980F80080006800F00F00B84201D0DD
:1028F0000120E9E72878400705D52068E96820F439
:10290000E050084320602878000706D52068296930
:1029100020F4604040EAC100206000F071F82168B6
:10292000F02292FAA2F201F0F001B2FA82F2D14062
:10293000064A515CC840064908600020FFF750FE77
:102940000020C1E7003C024008380240A095000882
:10295000DC0000200F2202600C4A136803F003031E
:102960004360136803F0F0038360136803F4E053DB
:10297000C36012684FF4E05303EAD20202610448D4
:10298000006800F00F00086070470000083802403F
:10299000003C02400148006870470000DC00002055
:1029A00008480949006809684FF4E05292FAA2F217
:1029B00001F4E051B2FA82F2D140044A515CC840BD
:1029C00070470000DC00002008380240A095000895
:1029D00008480949006809684FF4604292FAA2F277
:1029E00001F46041B2FA82F2D140044A515CC8401D
:1029F00070470000DC00002008380240A095000865
:102A000030B51948006810F00C01184812D0184C65
:102A100004290ED008290DD11349091F0A6802F0B4
:102A20003F030A68550247F6C07204D5B4FBF3F0C1
:102A300003E0204630BDB0FBF3F00B68096813409B
:102A400092FAA2F2B2FA82F2D34058434FF44032E3
:102A500092FAA2F201F44031B2FA82F2D140491C5A
:102A60004900B0FBF1F030BD083802400024F4000A
:102A7000001BB7002DE9F84F0446DFF8CC82007840
:102A8000A8F1040BC007ABF1040537D0D8F800104B
:102A90004046C1F38101012908D00068C0F38100DC
:102AA00002280AD1DBF80000400206D5286880031E
:102AB00024D56068002878D020E0A3492079891FB8
:102AC0000870606868B1FFF763FD064605E000BF67
:102AD000FFF75EFD801B642868D828688003F7D55F
:102AE0000CE0FFF755FD064605E000BFFFF750FD7F
:102AF000801B6428F0D828688003F7D42078934E90
:102B000080074FF0010A4FF0000742D5D8F80010B7
:102B1000404611F00C0F08D00068C0F38100022875
:102B20000AD1DBF80000400206D42868800714D5DB
:102B3000E068012839D110E0E068D8B1C6F800A0FB
:102B4000FFF726FD814605E0FFF722FDA0EB090017
:102B50000228C1D828688007F6D52868F82292FA9A
:102B6000A2F22169B2FA82F220F0F8009140084303
:102B700028600EE03760FFF70BFD814606E000BFDE
:102B8000FFF706FDA0EB090002280FD82868800790
:102B9000F6D42078000728D56D486169A1B1C0F846
:102BA00000A0FFF7F5FC814608E0CAE079E000BF2D
:102BB000FFF7EEFCA0EB0900022872D862486C30E7
:102BC00000688007F4D510E00760FFF7E1FC81465C
:102BD00006E000BFFFF7DCFCA0EB0900022860D88C
:102BE00059486C3000688007F4D42078400749D5F4
:102BF00055483830016841F080510160006800F0AC
:102C0000805000905348016841F480710160FFF7E3
:102C1000BFFC814606E000BFFFF7BAFCA0EB09004D
:102C200002283ED84B480068C005F5D5DFF818915A
:102C3000207A09F1680989F80000A06888B1FFF7D7
:102C4000A7FC009008E000BFFFF7A2FC0099411A22
:102C500041F2883081426CD8D9F800008007F3D562
:102C600010E0FFF795FC009008E000BFFFF790FC34
:102C70000099411A41F2883081425AD8D9F80000AF
:102C80008007F3D4A069E0B3D8F80010C1F3810144
:102C9000022956D00228376604D0FFF779FC044693
:102CA0004AE046E0FFF774FC074604E0FFF770FCDB
:102CB000C01B02283DD828688001F7D4D4E9070159
:102CC000084347F6C07292FAA2F2616AB2FA82F23F
:102CD0009140A26A4FF0FF3303EB52024FF44033AE
:102CE00093FAA3F3B3FA83F39A40114308434FF0E6
:102CF000706292FAA2F2E16AB2FA82F2914008435B
:102D000000E01CE0CBF80000C6F860A0FFF740FC34
:102D1000044604E0FFF73CFC001B022809D82868A1
:102D20008001F7D50BE000BFFFF732FC001B022843
:102D300002D90320BDE8F88F28688001F4D4002070
:102D4000F8E70120F6E7000008380240000047429B
:102D5000800E47420070004070B5040005D0002589
:102D6000A56294F8510010B106E0012070BD84F80E
:102D70005050204600F030F8022084F851002068BE
:102D8000016821F040010160D4E901010843D4E960
:102D900003121143084361690843218B01F4007158
:102DA0000843E1690843216A0843A16A084321688E
:102DB0000860A069042101EA1040616A08432168A3
:102DC00048602068C16921F40061C1616565012026
:102DD00084F85100002070BD00B500680E4987B02E
:102DE000884217D10D480021026842F48012026027
:102DF000006800F4801005904FF46070009002208D
:102E0000CDE90101032003900520049069460448A0
:102E1000FFF7D2FA07B000BD00500140443802402D
:102E2000001402402DE9F84F044690F850000026A7
:102E30000A9F9A4693460D464FF0010801280ED08E
:102E4000012084F85000FFF7A3FB814694F851005D
:102E5000616801280CD0B1F5827F07D102E0022021
:102E6000BDE8F88FA16809B9042801D00226BDE0A9
:102E700055B1BBF1000F07D0BAF1000F04D094F8A0
:102E80005100012802D004E00126AFE0052084F8BB
:102E9000510000206065C4F838B0A4F83EA0A4F842
:102EA0003CA02563A4F836A0A4F834A02064606494
:102EB00020680168490603D4016841F040010160BF
:102EC000E068B0F5006F606804D0E8B3E08E0128D8
:102ED0003BD06AE010B1E08E01282ED1216835F890
:102EE000020BC860E08E401EE08626E0B8F1000FBD
:102EF0000DD0E08E58B120688168890707D535F874
:102F0000021BC160E08E401EE0864FF00008E08F9B
:102F100058B120688168C90707D0C0682BF8020B38
:102F2000E08F401EE0874FF00108781C05D0FFF7C6
:102F30002FFBA0EB0900B84246D2E08E0028D5D185
:102F4000E08F0028D2D136E0FFE7216815F8010BA9
:102F50000873E08E401EE08627E000BFB8F1000F46
:102F60000DD0E08E58B120688168890707D515F823
:102F7000011B0173E08E401EE0864FF00008E08FD9
:102F800058B120688168C90707D0C0680BF8010BE9
:102F9000E08F401EE0874FF00108781C05D0FFF756
:102FA000F7FAA0EB0900B8420ED2E08E0028D5D186
:102FB000E08F0028D2D13B46012202212046CDF8E5
:102FC000009001F02DFB08B103260FE04A46394678
:102FD000204601F015FB18B101262020606505E0B0
:102FE000A06818B92068C16880680090012084F842
:102FF0005100002084F85000304631E74FF0E021C6
:103000000428086903D020F004000861704740F0EC
:103010000400FAE710B5401EB0F1807F01D3012013
:1030200010BD4FF0E02460610F21601701F0CCFA71
:103030000020A06107202061002010BD704770476C
:1030400030B590F83820012A19D0012200F8382F25
:1030500002234370D1E900342343D1E902452C43D4
:1030600023430C6923434C69896923430B4350F87C
:10307000381C4B64427000210170084630BD0220AC
:1030800030BD30B590F83820012A20D0012280F8D8
:103090003820022380F8393003685C6824F070041B
:1030A0005C6003685C680D682C435C6003689C6826
:1030B00024F080049C6003689C6849680C439C6011
:1030C00080F83920002180F83810084630BD0220F1
:1030D00030BD10B5040003D094F8390010B107E0FA
:1030E000012010BD002084F83800204600F00CF8C4
:1030F000022084F83900211D206801F069FB0120BD
:1031000084F83900002010BD70470168CA6842F099
:103110000102CA600068016841F0010101600020FD
:103120007047704770B50446006801694FF00005AC
:10313000C943890715D4C168C943890711D4E91E59
:10314000016101202076206880698007204602D036
:10315000FFF7E7FF04E000F029F9204600F008FA45
:10316000257620680169C943490717D4C168C94356
:10317000490713D46FF00401016102202076206812
:10318000806910F4407F204602D0FFF7CAFF04E0B8
:1031900000F00CF9204600F0EBF925762068016973
:1031A000C943090716D4C168C943090712D46FF08F
:1031B00008010161042020762068C069800720464C
:1031C00002D0FFF7AEFF04E000F0F0F8204600F078
:1031D000CFF9257620680169C943C90617D4C168AB
:1031E000C943C90613D46FF010010161082020768D
:1031F0002068C06910F4407F204602D0FFF791FF9D
:1032000004E000F0D3F8204600F0B2F925762068FB
:103210000169C943C90708D1C168C943C90704D1B5
:10322000891E0161204600F0C1F920680169C94387
:10323000090609D4C168C943090605D46FF08001A5
:1032400001612046FFF7FAFE20680169C94349067B
:1032500009D4C168C943490605D46FF04001016132
:10326000204600F0ADF920680169C94389060BD4F6
:10327000C168C943890607D46FF020010161204667
:10328000BDE87040FFF7DBBE70BD0000F0B53B4B02
:103290000168002402250126394885B04FF44072A8
:1032A00099420FD10092CDE90154CDE90346694618
:1032B000FFF782F84FF4C0400090CDE90154694611
:1032C000304811E0B1F1804F09D02F4B2F4899427F
:1032D00010D130210091CDE90154694631E00F2130
:1032E0000091CDE901546946CDE90346FFF764F842
:1032F00005B0F0BD264B99420FD10092CDE90154A3
:103300006946CDE90345FFF757F84FF44050009068
:10331000CDE9015469461F4813E01F4A1F48204F5A
:10332000914211D10096CDE901546946CDE903459A
:10333000FFF742F84FF4E0500090CDE901546946A0
:103340003846CDE90345D1E7164A914208D1E42138
:103350000091CDE901540321CDE903416946C5E758
:1033600011488142C4D14FF410700090CDE901544E
:103370000920CDE9034069463846B7E7000001401F
:10338000000002400010024000040040000402401F
:1033900000080040000C0240000C004000200240E9
:1033A000001C02400004014000180040704770B546
:1033B000044690F838000D4601280DD0012684F807
:1033C0003860022084F8390042B1042A18D0082A53
:1033D0002AD00C2A4DD139E0022070BD206801F0BE
:1033E00063FA2068816941F0080181612068816980
:1033F00021F004018161206881692A69114311E08B
:10340000206801F07DFA2068816941F400618161E2
:103410002068816921F480618161206881692A695D
:1034200041EA0221816124E0206801F09BFA2068D2
:10343000C16941F00801C1612068C16921F004013E
:10344000C1612068C1692A69114311E0206801F057
:10345000B9FA2068C16941F40061C1612068C1699D
:1034600021F48061C1612068C1692A6941EA0221B1
:10347000C16184F83960002084F8380070BD10B54F
:10348000040003D094F8390010B107E0012010BD0A
:10349000002084F83800204600F00CF8022084F860
:1034A0003900211D206801F093F9012084F83900CA
:1034B000002010BD08B501682648274A814205D181
:1034C000106840F001001060106812E02248001FF0
:1034D000B1F1804F08D0214B99420ED1016841F0E3
:1034E00002010160006826E0016841F0010101600D
:1034F000006800F00100009008BD194B994207D107
:10350000016841F004010160006800F00400F2E786
:10351000144B994207D1016841F00801016000682D
:1035200000F00800E7E7104B994207D1106840F01F
:1035300002001060106800F00200DCE70B4A9142C4
:10354000DAD1016841F040010160006800F04000FC
:10355000D1E7000000000140443802400004004070
:1035600000080040000C004000040140001800402A
:103570007047000010B504460068012201F088F988
:1035800008492068884202D00749884203D1416C2B
:1035900041F4004141642068016841F0010101608B
:1035A000002010BD000001400004014000680349F4
:1035B000884201D1FEF7F2BF7047000000100040C2
:1035C0007047704770B5026804461068D168536947
:1035D00010F00F0F51D003F0010501F49076354340
:1035E0005DD0C20705D0CA0503D5E26B42F00102E7
:1035F000E263420705D5DA0703D0E26B42F002022C
:10360000E263820705D5DA0703D0E26B42F00402D9
:10361000E263020705D5DA0703D0E26B42F0080245
:10362000E263E26B002A34D0800604D5880602D516
:10363000204601F02CFA20684069E16BC0F380104D
:1036400001F008010143204624D001F0EBF9206885
:10365000416949061AD5416921F040014161606B19
:10366000A0B11B490165606BFEF77FFC002810D0FC
:10367000606B016DBDE87040084783060FD58B066F
:103680000DD52046BDE8704001F001BA2046FFF795
:1036900098FF70BDFFF795FF0020E06370BD030643
:1036A00006D50B0604D52046BDE8704001F08CBB62
:1036B0004006F3D54806F1D5D168204621F04001F7
:1036C000D160202184F8391000F0C2F970BD0000EB
:1036D000154A000870B5040004D094F8390000259C
:1036E00010B106E0012070BD84F83850204600F08B
:1036F00023F8242084F839002068C16821F400519F
:10370000C160204601F00AFA2068016921F4904165
:1037100001612068416921F02A0141612068C16886
:1037200041F40051C160E563202084F8390084F839
:103730003A00002070BD00002DE9F04F0546D0F89A
:1037400000C00220DFF81C820024DFF81CA2012147
:10375000032207238706460287B0C4453BD1DAF827
:10376000008048F01008CAF80080DAF800C00DF1B7
:1037700004080CF0100CCDF814C04FF0C00CCDF8BC
:1037800000C088E80F0069467848FEF715FEDFF8AC
:10379000E48177494046C8F80010C0E90174C0E9E7
:1037A0000346C8F81440C8F81840C8F81C40C8F8C8
:1037B0002040C8F82440FEF7BFFC08B1FDF709FE21
:1037C000C5F83480002205212520C8F83850FEF7BE
:1037D00079FF252046E0DFF8A081DFF88C91DFF843
:1037E0009CB1A9F10409C44541D1D9F8008048F43D
:1037F0000038C9F80080D9F800C00DF104080CF4B5
:10380000003CCDF814C04FF0600CCDF800C088E843
:103810000F0069465846FEF7CFFDDFF8588158493A
:1038200008F160084046C8F80010C0E90174C0E91A
:103830000346C8F81440C8F81840C8F81C40C8F837
:103840002040C8F82440FEF777FC08B1FDF7C1FD21
:10385000C5F83480002211462620C8F83850FEF7FB
:1038600031FF2620FEF722FF07B0BDE8F08FDFF81A
:103870001481C4453ED1D9F8008048F48028C9F8A5
:103880000080D9F800C00DF104080CF4802CCDF8AC
:1038900014C04FF4407CCDF800C088E80F006946A2
:1038A0005846FEF789FDDFF8CC80354908F1C0089D
:1038B00060394046C8F80010C0E90174C0E9034609
:1038C000C8F81440C8F81840C8F81C40C8F8204090
:1038D000C8F82440FEF730FC08B1FDF77AFDC5F8C2
:1038E0003480002211462720C8F83850FEF7EAFE3F
:1038F0002720B7E7244B9C45B6D1DAF8007047F093
:103900002007CAF80070DAF8003001AF03F0200396
:1039100005934FF48443009387E807000820049040
:1039200069461A48FEF748FD1148194F18383860A3
:103930008005C7E90104C7E903467C61BC61FC61FD
:103940003C6238467C62FEF7F7FB08B1FDF741FDAB
:103950006F63002205214720BD63FEF7B3FE4720B9
:1039600080E700000010014044380240000402409B
:1039700040640240B004002000440040000C0240BB
:1039800088600240004800400014014000180240D6
:10399000D005002070472DE9F843044690F839001F
:1039A0001E4617460D46202850D135B32FB394F844
:1039B000380001284AD0012084F838004FF0000870
:1039C000C4F83C80212084F83900FEF7E1FDA7848B
:1039D000E78481464FF48057E08C4B46401EE084DC
:1039E000A0684FF00002B8424FF0800120460096D8
:1039F00011D101F01AFA00BB02E00120BDE8F88302
:103A00002888C0F3080120684160206908B16D1C56
:103A100008E0AD1C06E001F008FA70B9216815F85D
:103A2000010B4860E08C0028D6D14B460022402193
:103A30002046009601F0F9F908B10320DEE72020C6
:103A400084F8390084F838800020D7E70220D5E7D1
:103A50007047FEE710B5047800222CB10023012C3A
:103A600006D0022C0BD108E049B10121017006E01B
:103A700021B102210170012201E001B90370104659
:103A800010BD00002DE9F04105466D48854208D182
:103A90006C49A1F17800FDF754FC072002F0AAFB65
:103AA000C8E06948694E854244D1664C0020143410
:103AB000A4F1F4072178B12902D0FF2906D006E04D
:103AC0006178F98219B12070607000E0F8805D487B
:103AD000E17814308088B9B1617800EE101A594944
:103AE000B8EE400AC83981ED010A628852BA00EE88
:103AF000102A42BAB8EE400A81ED050A00EE102AFB
:103B0000B8EE400A81ED040A6178F4290BD1E42172
:103B1000F98040BA3881FEF73BFDF168401A306108
:103B2000FEF736FDF0602078F32802D16078387017
:103B300030707FE0464885427CD142486438017845
:103B4000552977D14178AA2974D17178491C7170AF
:103B50008678C77804794379F11904EB030C8C4417
:103B60008179C0798C440CF0FF0C604562D167F319
:103B7000070264F30F22334C63F31742583461F3A6
:103B80001F623B2E05D204F1EC0044F8262040F8D9
:103B90002620B7EE000A84ED3A0A3A212C4804F0B8
:103BA000C9FA112E14D82B4894EC030A816E884769
:103BB00029480C3494EC030A0C3C816E8847274852
:103BC00094ED0B1A94ED090A816EDFED250A884702
:103BD000352E18D0372E0DD0382E2BD0392E29D196
:103BE00094ED390AB5EEC00AF1EE10FA22D0FEF7D4
:103BF0009BFD1FE000243146154804F09BFA641C2D
:103C00003B2CF8DB16E094ED350AB5EEC00AF1EE78
:103C100010FA0FD0144913480860BFF34F8F1348B0
:103C20000168134A01F4E06111430160BFF34F8F53
:103C300000BFFDE72846BDE8F04104F007BA0000E8
:103C4000B0030020804900207004002050010020B3
:103C5000F0030020444C0020B04C00201C4D0020FC
:103C60000000000078563412004002400CED00E0E5
:103C70000400FA052DE9F0430027DDE907C9434EAA
:103C8000012500BF36F8158006EB45046D1C24F8AD
:103C9000028CB4F81680A4F81480B4F82C80A4F830
:103CA0002A80B4F84280A4F84080B4F85880A4F880
:103CB0005680B4F86E80EDB2A4F86C800A2DE1D382
:103CC00070823185F287A6F85430A6F86AC0A6F84B
:103CD0008090002036F91010401CC0B20F440A2812
:103CE000F8D30A2197FBF1F0B08200224FEA0200DC
:103CF00006EB4003401CB3F91630C0B21A440A2840
:103D0000F6D392FBF1F070850022104606EB4003DB
:103D1000401CB3F92C30C0B21A440A28F6D392FBE7
:103D2000F1F0A6F8400000224FEA020006EB400343
:103D3000401CB3F94230C0B21A440A28F6D392FBB1
:103D4000F1F0A6F8560000224FEA020006EB40030D
:103D5000401CB3F95830C0B21A440A28F6D392FB7B
:103D6000F1F0A6F86C0000224FEA020006EB4003D7
:103D7000401CB3F96E30C0B21A440A28F6D392FB45
:103D8000F1F0A6F88200BDE8F083000004530020A3
:103D9000C006010E1C2003F0FFBCC006010E1B2054
:103DA00003F0FABC0F4810B50D49016005214160D0
:103DB00000214FF400328160C0E903125201C0E9D2
:103DC00005210122C0E9072141628162C162FDF73C
:103DD00025FE002803D0BDE81040FDF7FABA10BD5B
:103DE00000640040D8020020104810B50E49016060
:103DF0000521416000214FF04072C0E902124FF4EA
:103E0000003202615201C0E905210122C0E9072107
:103E100041628162C162FDF701FE002803D0BDE866
:103E20001040FDF7D6BA10BD00680040180300200E
:103E3000194808B5016841F480010160016801F486
:103E400080010091016841F40011016000680022C6
:103E500000F40010009005210C20FEF733FC0C202C
:103E6000FEF724FC002205211020FEF72BFC102079
:103E7000FEF71CFC002205213920FEF723FC392027
:103E8000FEF714FC002205213A20FEF71BFCBDE8DA
:103E900008403A20FEF70ABC3038024000B59FB017
:103EA00014221F496846FCF7B4FA0021684603F063
:103EB000E3FC1C4914220860194905A81431FCF7D9
:103EC000A8FA002105A803F0D7FC154914222831CF
:103ED0000AA8FCF79EFA00210AA803F0CDFC1049BD
:103EE00014223C310FA8FCF794FA00210FA803F02C
:103EF000C3FC0B491422503114A8FCF78AFA0021A4
:103F000014A803F0B9FC06491422643119A8FCF77F
:103F100080FA002119A803F0AFFC1FB000BD00001B
:103F200028950008000000202DE9F04F594887B07F
:103F30000024016841F010010160016801F01001E6
:103F40000591016841F002010160016801F0020180
:103F50000591016841F040010160016801F04001F4
:103F60000591016841F008010160016801F0080154
:103F70000591016841F001010160016801F0010152
:103F80000591016841F480710160016801F480715C
:103F90000591016841F080010160016801F0800134
:103FA0000591016841F0200101600068DFF8E890A8
:103FB00000F020000590002288214846FEF7E2FA32
:103FC000012204214846FEF7DDFADFF8D0A04FF4C5
:103FD0000057002239465046FEF7D4FADFF8C0B049
:103FE00044F24008002241465846FEF7CBFA8C20A6
:103FF00000900125CDE90154694648460394FEF737
:10400000DBF902260096CDE901546946584603942F
:10401000FEF7D2F920200090CDE9015469464846C8
:104020000394FEF7C9F940200090CDE90154694698
:1040300048460394FEF7C0F91A480096CDE90105F9
:1040400069464846FEF7B8F90097CDE9015469463C
:1040500050460394FEF7B0F98020CDE9000469468C
:1040600011480294FEF7A8F9CDF80080CDE901547B
:10407000694658460394FEF79FF90D2000900B48BF
:10408000CDE9010469460A48FEF796F907B0BDE894
:10409000F08F00003038024000100240001802404B
:1040A0000014024000002110000C0240000011101A
:1040B00000000240104810B50E4901604FF48271B3
:1040C000416000218160C1604FF400720161C0E96C
:1040D00005123022C0E90721416281620A21C162D2
:1040E000FEF73AFE002803D0BDE81040FDF771B995
:1040F00010BD0000005001405803002010B51748C3
:1041000088B01549016059210024C0E9011440F626
:10411000C311C0E90314FFF7B2F908B1FDF759F96B
:10412000602000904FF47A70CDE9010400226946C6
:104130000A480494FFF73BF908B1FDF74AF9042255
:1041400069460648FFF733F908B1FDF742F903481D
:10415000FFF79CF808B010BD001800409807002039
:1041600030B5274889B02549016059210024C0E9AC
:10417000011442F20F71C0E90314FFF780F908B18E
:10418000FDF727F9079407A91D480894FEF779FF62
:1041900008B1FDF71EF96020009040F2E245CDE93C
:1041A00001540022694616480494FFF700F908B14B
:1041B000FDF70FF90422694611480195FFF7F7F85A
:1041C00008B1FDF706F94FF4FA700190082269462C
:1041D0000B48FFF7ECF808B1FDF7FBF80C22694635
:1041E0000748FFF7E4F808B1FDF7F3F8FA2001906B
:1041F0000348FFF74BF809B030BD00000000014054
:104200003006002010B522488AB04FF0804101608E
:1042100059210024C0E9011442F20F71C0E90314CE
:10422000FFF72DF908B1FDF7D4F8079407A918484E
:104230000894FEF726FF08B1FDF7CBF86020009048
:1042400002940022694604941148FFF7B0F808B1BF
:10425000FDF7BFF8042269460D48FFF7A8F808B13A
:10426000FDF7B7F8082269460948FFF7A0F808B13A
:10427000FDF7AFF80C2269460548FFF798F808B13A
:10428000FDF7A7F80248FFF701F80AB010BD0000DB
:104290006C06002010B51A488AB018490160B32195
:1042A0000024C0E90114C4600461FFF7E8F808B114
:1042B000FDF78FF8079407A911480894FEF7E1FE6F
:1042C00008B1FDF786F86020CDE9000402940022D1
:1042D00069460B480494FFF76AF808B1FDF779F8CE
:1042E000042269460648FFF762F808B1FDF771F845
:1042F0000348FEF7CBFF0AB010BD000000040040E9
:10430000A806002010B521488AB01F490024C0E942
:1043100000148460C4600461FFF7B1F808B1FDF7D0
:1043200058F8079407A919480894FEF7AAFE08B19F
:10433000FDF74FF86020CDE90004029400226946A1
:1043400012480494FFF733F808B1FDF742F804224D
:1043500069460E48FFF72BF808B1FDF73AF8082236
:1043600069460A48FFF723F808B1FDF732F80C2236
:1043700069460648FFF71BF808B1FDF72AF803481D
:10438000FEF784FF0AB010BD00080040E4060020DC
:1043900010B524488AB02249016059210024C0E99F
:1043A000011440F6C311C0E90314FFF768F808B11F
:1043B000FDF70FF8079407A91A480894FEF761FE65
:1043C00008B1FDF706F8602000904FF47A70CDE94F
:1043D00001040022694613480494FEF7E8FF08B17F
:1043E000FCF7F7FF042269460E48FEF7E0FF08B12C
:1043F000FCF7EFFF082269460A480194FEF7D7FF51
:1044000008B1FCF7E6FF0C2269460648FEF7CFFF2D
:1044100008B1FCF7DEFF0348FEF738FF0AB010BD15
:10442000000C00402007002010B52B4890B029490F
:104430000024C0E900148460C46004614461FFF793
:104440001EF808B1FCF7C5FF0E940EA922480F9480
:10445000FEF717FE08B1FCF7BCFF07940894099417
:104460004FF400500A94CDE90B4007A91A480D9467
:10447000FEF7E6FD08B1FCF7ACFF6020CDE90004D3
:104480000294039404940594002269461248069409
:10449000FEF78DFF08B1FCF79CFF042269460E4829
:1044A000FEF785FF08B1FCF794FF082269460A4829
:1044B000FEF77DFF08B1FCF78CFF0C226946064829
:1044C000FEF775FF08B1FCF784FF0348FEF7DEFE38
:1044D00010B010BD000401405C0700200D4810B56D
:1044E0000B4901600C49416000214FF480628160FA
:1044F000C0E903120C22C0E90521C161FFF7EAF807
:10450000002803D0BDE81040FCF763BF10BD0000D9
:1045100000100140B0030020A08601000C4810B537
:104520000A4901604FF4E1314160002181600C22B1
:10453000C160C0E904128161C161FFF7CBF80028B6
:1045400003D0BDE81040FCF744BF10BD004400405C
:10455000F00300200C4810B50A4901604FF4E13126
:104560004160002181600C22C160C0E904128161B8
:10457000C161FFF7AFF8002803D0BDE81040FCF799
:1045800028BF10BD00480040300400200C4810B582
:104590000A4901604FF4E1314160002181600C2241
:1045A000C160C0E904128161C161FFF793F800287E
:1045B00003D0BDE81040FCF70CBF10BD0014014053
:1045C00070040020FEE770470907090E002806DA8C
:1045D00000F00F0000F1E02080F8141D704700F19A
:1045E000E02080F80014704730B4034C4466034C5C
:1045F000846630BC03F078BAE97A0008F77A0008DC
:1046000038B50B46009204460022802100F008F8DD
:10461000002804D0606D40F020006065032038BDA4
:104620002DE9F0411D4617460E460446DDF8188078
:1046300035E0681C33D02DB1FDF7AAFFA0EB0800D0
:10464000A8422CD32068416821F0E00141606068F5
:10465000B0F5827F0BD1A068B0F5004F02D0B0F565
:10466000806F04D12068016821F040010160A06AD8
:10467000B0F5005F0AD1206801684DF6FF72114065
:1046800001602068016841F400510160012084F854
:104690005100002084F850000320BDE8F08120681C
:1046A000806836EA000004D00020B842C1D1002062
:1046B000F3E70120F9E74FF47A742046FDF7C7FDD0
:1046C000642003F0C3F8F8E703F0CCB830B526480F
:1046D00093B00025016841F080510160006800F04E
:1046E000805011902148016841F440410160006808
:1046F000022400F4404011900120009001908005B8
:10470000CDE9064006200890B420CDE90904042034
:104710000B906846FEF7AEF900B1FEE7FEF716F81B
:1047200000B1FEE70CA90F2081E831004FF4A05042
:104730000F904FF48050109005210CA8FEF74CF814
:1047400000B1FEE7FEF726F94FF47A71B0FBF1F005
:10475000FEF760FC0420FEF751FC00220F21501EE2
:10476000FDF7B0FF13B030BD40380240007000408C
:104770001048016841F4700101600F48016841F080
:10478000010101600C4A00210832116002680B4BE4
:104790001A400260031D0A4A1A60026822F480224D
:1047A000026005480C3001600249580680390860F3
:1047B0007047000088ED00E000380240FFFFF6FE81
:1047C000103000240148FEF7ADBC00009C02002020
:1047D000F0B50268234B244D244E254F254C4FF055
:1047E000804C984209D0604507D0A84205D0B0421D
:1047F00003D0B84201D0A04204D122F0700E4A6822
:1048000042EA0E0298421BD0604519D0A84217D048
:10481000B04215D0B84213D0A04211D0164DA842D4
:104820000ED0164DA8420BD0154DA84208D0154DFC
:10483000A84205D0144DA84202D0144DA84203D17D
:1048400022F44075CA682A4302608A68C2620A6814
:104850008262984201D0A04201D10969016301211D
:104860004161F0BD0000014000040040000800402C
:10487000000C0040000401400040014000440140A1
:104880000048014000180040001C0040002000408B
:1048900010B50123046A8B409C430462036A8A407A
:1048A0001343036210BD000030B5026A22F001021A
:1048B0000262026A436884690D6824F07304254328
:1048C00022F002048A6822430B4CA04202D00B4C17
:1048D000A0420BD122F00804CA6823F4407322439B
:1048E0004C6922F004021C438B69234343608561B9
:1048F00049684163026230BD00000140000401408C
:1049000030B5026A22F010020262026A43688469CA
:104910000D6824F4E64444EA05248D6822F0200260
:1049200042EA05120D4DA84202D00D4DA8420ED10B
:10493000CD6822F0800242EA05124D6923F44063FB
:1049400043EA85038D6922F0400243EA8503436010
:10495000846149688163026230BD0000000001404B
:104960000004014030B5026A22F480720262036AD8
:104970004268C46923F4007324F073050C682C4367
:104980008D6843EA05230D4DA84202D00C4DA84284
:104990000ED1CD6823F4006343EA05234D6922F468
:1049A000405242EA05128D6923F4806342EA0512FF
:1049B0004260C4614968C163036230BD00000140C8
:1049C0000004014030B5026A22F480520262046A97
:1049D0004268C3690D6823F4E64343EA05238D6802
:1049E00024F4005444EA0534084DA84202D0084D8E
:1049F000A84204D14D6922F4804242EA8512426005
:104A0000C36149680164046230BD000000000140D8
:104A10000004014010B5806B0021C185C184FEF700
:104A2000D0FD10BD0168CA6822F49072CA600168A6
:104A30004A6922F001024A61202180F83A10704749
:104A400070B5044690F83A0020281ED1D9B1D2B1F1
:104A500094F83800012818D0012084F83800A162A9
:104A6000A2850025E563134626680A46311D606B62
:104A7000FDF7CAFB2068416941F04001416184F8BB
:104A80003850002070BD012070BD022070BD10B5EF
:104A900090F83A10222901D0022010BD8168B1F5AA
:104AA000805F11D00169002901681FD0496801F0B9
:104AB0007F03816A4A1C82620B70C18D491E090402
:104AC000090CC18518D026E00269816A002A0268B3
:104AD000526805D0D2B20A80816A491C8162ECE733
:104AE000C2F308020A80816A891CF7E74A68816A72
:104AF0004B1C83620A70E0E70168CA6822F4907276
:104B0000CA6001684A6922F001024A61202180F8E6
:104B10003A10FEF73FFF002010BD00002DE9F041E4
:104B200004460068016921F44052E16811430161C3
:104B30002168C86849F20C6290432369A268E5695C
:104B40001A4363692B431A430243CA6021684869C8
:104B500020F44072A06910434861E1696425B1F511
:104B6000004F9748974A21684FF032083FD0914252
:104B700001D081427CD1FDF72BFF00EBC00101EB9E
:104B8000001061688900B0FBF1F6FDF721FF00EB32
:104B9000C00101EB001061688900B0FBF1F0B0FBCF
:104BA000F5F06FF01801484306EB800108EB0110A7
:104BB000B0FBF5F000F0F006FDF70AFF00EBC001D6
:104BC00001EB001061688900B0FBF1F0B0FBF5F07B
:104BD00006EB0016FDF7FCFE00EBC00101EB001038
:104BE00061688900B0FBF1F7FDF7F2FED2E0914277
:104BF00001D081423DD1FDF7EBFE00EBC00101EB9E
:104C0000001061684900B0FBF1F0B0FBF5F006015F
:104C1000FDF7DEFE00EBC00101EB0010616849000A
:104C2000B0FBF1F7FDF7D4FE00EBC00101EB001083
:104C300061684900B0FBF1F0B0FBF5F06FF01801CE
:104C4000484307EB800108EBC100B0FBF5F000F032
:104C5000F80006EB4006FDF7BBFE00EBC00101EBE0
:104C6000001061684900B0FBF1F7FDF7B1FE3CE0D0
:104C700055E0FDF795FE00EBC00101EB0010616807
:104C80004900B0FBF1F0B0FBF5F00601FDF788FE3E
:104C900000EBC00101EB001061684900B0FBF1F7C7
:104CA000FDF77EFE00EBC00101EB001061684900DA
:104CB000B0FBF1F0B0FBF5F06FF01801484307EBE3
:104CC000800108EBC100B0FBF5F000F0F80006EB46
:104CD0004006FDF765FE00EBC00101EB00106168C6
:104CE0004900B0FBF1F7FDF75BFE00EBC00101EB03
:104CF000001061684900B0FBF1F0B0FBF5F06FF017
:104D00001801484307EB800108EBC100B0FBF5F048
:104D100000F00700216830448860BDE8F081FDF7AD
:104D20003FFE00EBC00101EB001061688900B0FBA1
:104D3000F1F6FDF735FE00EBC00101EB00106168F4
:104D40008900B0FBF1F0B0FBF5F06FF018014843BB
:104D500006EB800108EB0110B0FBF5F000F0F00667
:104D6000FDF71EFE00EBC00101EB00106168890039
:104D7000B0FBF1F0B0FBF5F006EB0016FDF710FE0E
:104D800000EBC00101EB001061688900B0FBF1F796
:104D9000FDF706FE00EBC00101EB00106168890021
:104DA000B0FBF1F0B0FBF5F06FF01801484307EBF2
:104DB000800108EB0110B0FBF5F000F00F00A9E74F
:104DC000001401400010014090F83910212901D051
:104DD000022070478168B1F5805F016A0BD04A1CE0
:104DE0000262026809785160C18C491E0904090CED
:104DF000C1840ED017E009880268C1F30801516030
:104E000001690029016A02D0491C0162ECE7891C92
:104E1000FBE70168CA6822F08002CA600068C168C6
:104E200041F04001C160002070472DE9F0419846F3
:104E300017460E460446069D1DE0681C1BD02DB18A
:104E4000FDF7A6FBA0EB0800A84214D92068C168B2
:104E500021F4D071C1602068416921F001014161F4
:104E6000202084F8390084F83A00002084F83800C3
:104E70000320BDE8F0812068006836EA000004D015
:104E80000020B842D9D00020F3E70120F9E7000064
:104E900010B50448FEF7F6FDBDE810400148FEF7E6
:104EA00091BB0000B003002010B50448FEF7EAFDF6
:104EB000BDE810400148FEF785BB0000F00300206C
:104EC00010B50448FEF7DEFDBDE810400148FEF7CE
:104ED00079BB00003004002010B50448FEF7D2FD75
:104EE000BDE810400148FEF76DBB000070040020D3
:104EF000FEE703B401984100009850EAC12018BFB2
:104F000004204A0D18BF40F0010040F2FF72B2EBDE
:104F1000515F08BF40F00200012808BF052002B021
:104F200070474100080218BF04200A0E18BF40F065
:104F300001004FF07F4232EA010108BF40F0020059
:104F4000012808BF0520704770B5C1482DED020B40
:104F50002DED0E8B82B0119D25F000449FEDBEDB40
:104F60009FEDBFEB84423EDBA4F140511098A1F1CC
:104F70007F6108430FD0BC48844202DC28D11098DE
:104F800030B39DED100B02B0BDEC0E8B02B0BDE84E
:104F9000704000F0D8BD9DED100B53EC1D2B51EC73
:104FA000100B03F055FF9DED100B41EC180B53EC6B
:104FB0001E2B51EC100B03F04BFF53EC182B03F09E
:104FC000E7FC41EC100B02B0BDEC0E8B02B070BDE3
:104FD0000120FBF787FA02B0BDEC0E8B02B0BDE8F2
:104FE000704000F0C5BDA1489FEDA18B844256DA08
:104FF0009DED100BB4F1795F0ADA51EC100BFFF75D
:1050000078FF042808BF00F0C3FD9DED100BDAE720
:1050100053EC102B51EC100B03F01AFF41EC190B61
:1050200095480621B0EE490AF0EE690A784400F08E
:105030000EFD53EC192B51EC100B03F009FF41EC62
:105040001A0B8E48B0EE490AF0EE690A0421784442
:1050500000F0FDFC53EC192B51EC100B03F0F8FEA3
:1050600053EC182B03F094FC41EC100B51EC1A0B91
:1050700053EC102B03F040FDCDE900019DED000B3A
:1050800053EC102B9DED100B51EC100B03F0E0FED8
:105090009DED101B53EC112B03F07AFCD2E09DED3B
:1050A000100B51EC100B01F0B3F853EC182B03F07C
:1050B000CDFF9FED730BCDE9000153EC102B9DED5F
:1050C000000B51EC100B03F0C3FE41EC190B6E48C2
:1050D0000621B0EE490AF0EE690A784400F0B7FC08
:1050E00053EC192B51EC100B03F0B2FE41EC1B0BEF
:1050F0006648B0EE490AF0EE690A0421784400F0EF
:10510000A6FC53EC192B51EC100B03F0A1FE53EC51
:10511000182B03F03DFC41EC1C0B51EC190B02F079
:105120005DFF41EC180B5A489FED5BABA04222DCBF
:1051300053EC1C2B51EC1B0B03F0DEFCCDE9000102
:105140009DED000B51EC180B53EC102B03F080FE7F
:1051500053EC182B03F01CFC53EC1A2B03F078FED5
:1051600053EC1D2B04F04AF853EC1E2B03F06EFF9A
:1051700041EC100B5FE08DED008B002000909DED69
:10518000000B51EC180B53EC102B03F001FC9DEDC0
:10519000000B41EC1E0B53EC102B51EC100B03F0E9
:1051A00057FE53EC192B03F051FF53EC1E2B03F069
:1051B000A3FC41EC190B53EC1C2B51EC1B0B03F023
:1051C0009BFC41EC1B0B53EC1A2B51EC190B03F01D
:1051D0003FFE53EC1D2B03F039FF41EC190B53EC50
:1051E0001A2B51EC180B03F033FE53EC1B2B03F07E
:1051F0002FFE53EC192B04F001F89DED000B41EC50
:10520000180B53EC1A2B51EC100B03F021FE9FED01
:10521000249B53EC192B03F019FF41EC100B51ECBC
:10522000180B53EC102B03F0E9FF53EC192B03F090
:105230000DFF41EC100B002D3FF7C5AE51EC100BEC
:1052400003F068FB41EC100BBDE60000000000001D
:105250000000F03F00000000075C143326A6913CDC
:10526000182D4454FB21F93F0000F07F0000E03F7F
:10527000000000000000F03FA0450000AE45000027
:10528000000000000000E03FF24400000045000084
:105290003333EF3F0000000000000000000000403A
:1052A000182D4454FB21E93F70B59B482DED020BAE
:1052B0002DED068B079D25F00044A04218DC974891
:1052C000844202DC0AD1069840B19DED060BBDEC8C
:1052D000068B02B0BDE8704000F035BC002DCCBF9D
:1052E0009FED8F0B9FED900BBDEC068B02B070BD58
:1052F0008F48A04215DD8F48A042D8BF4FF0FF3441
:1053000058DD9DED060B51EC100BFFF7F2FD042864
:1053100008BF00F03DFC9DED060BBDEC068B02B016
:1053200070BD9DED060B51EC100B00F071FFCDE947
:10533000060181489FED828BA0423CDD8248A0425D
:105340001FDD00249FED82AB9DED060B53EC1A2B65
:1053500051EC100B03F01CFB9DED060B41EC190BFF
:1053600053EC1A2B51EC100B03F072FD53EC182B7D
:1053700003F044FF53EC192B03F0BEFBCDE906010B
:1053800049E09DED060B012453EC182B51EC100B5A
:1053900003F0FEFA9DED060B41EC190B53EC182BB4
:1053A00051EC100B03F02AFF53EC192B03F0A4FB74
:1053B000CDE906012FE06848A0421FDD02249FEDE1
:1053C000689B9DED060B53EC192B51EC100B03F071
:1053D0003FFD53EC182B03F0DBFA9DED060B41EC7F
:1053E000180B53EC192B51EC100B03F007FF53EC87
:1053F000182B03F081FBCDE906010CE09DED060BB7
:10540000032453EC102B9FED580B51EC100B03F0C1
:1054100073FBCDE906019DED060B53EC102B51EC0F
:10542000100B03F015FD41EC180B53EC182B03F097
:105430000FFD41EC190B4E480621B0EE490AF0EE83
:10544000690A784400F003FB53EC182B51EC100B65
:1054500003F0FEFC41EC180B4648B0EE490AF0EEB2
:10546000690A0521784400F0F2FA53EC192B51EC4B
:10547000100B03F0EDFC41EC100B51EC180B53EC4E
:10548000102B002C0EDA03F083FA9DED061B53EC73
:10549000112B03F0DDFC9DED061B53EC112B03F0EB
:1054A000D5FD35E003F074FA9DED061B53EC112B8E
:1054B00003F0CEFC41EC100B2F48784400EBC40005
:1054C00090ED001B51EC100B53EC112B03F096FEEA
:1054D0009DED061B53EC112B03F090FE41EC100BDD
:1054E0002648784400EBC40090ED001B51EC100BF3
:1054F00053EC112B03F0AAFD41EC100B002DA2BFC1
:10550000BDEC068B02B070BD51EC100B03F002FA3B
:1055100041EC100B01E70000000010440000F07F98
:10552000182D4454FB21F93F182D4454FB21F9BF99
:105530000000DC3F0000203E0000F33F00000000C0
:10554000000000000000F03F0000E63F0000000007
:105550000000000000000040008003400000000048
:10556000000000000000F83F000000000000F0BF55
:1055700042420000F8410000824100003A41000030
:1055800070B56B4E2DED040B2DED028B82B0DDF866
:105590001CC0DDE905235C422CF000411C4341EABC
:1055A000D474049D22F00040B44205D86C422C43D0
:1055B00040EAD474B4420BD99DED061B9DED040B5B
:1055C00002B0BDEC028B04B0BDE8704000F0C5BA7B
:1055D000ACF14054A4F17F641C430BD0022404EAD4
:1055E000AC7444EAD27405439FED538B9FED542B6A
:1055F00007D015E09DED040B51EC100B00F0F9FA0B
:1056000042E0002C11BF012C9DED040B02B0BDEC5B
:10561000028B04BF04B070BD022C38D0032C3BD0E9
:105620000B439FED491B9FED4A0B0AD0B14218D1A5
:10563000B04209D121F0804120F0804007910590CF
:105640000FE0002A15DA10E0434B7B44002C08BF22
:1056500093ED000B0DD0012C10D0022C17D0032C91
:105660001AD0B0421DD1002A03DAB0EE410AF0EEA2
:10567000610A02B0BDEC028B04B070BD93ED000B6B
:1056800051EC100B03F046F941EC100BF1E7B0EED2
:10569000480AF0EE680AECE7B0EE420AF0EE620A61
:1056A000E7E7401A00153C28C8BF8DED000B19DC58
:1056B000BCF1000FBEBF10F13C0F9FED290B8DED2B
:1056C000000B0FDB9DED060B53EC102B9DED040B37
:1056D00051EC100B03F010FA00F09AFD00F089FA7B
:1056E000CDE90001002C08BF9DED000BC1D0012CBD
:1056F00010D0022C9FED1C0B53EC102B9DED000BDA
:1057000051EC100B0DD003F079FD53EC182B03F086
:1057100075FDB9E7019880F0004001909DED000B08
:10572000A7E703F06BFD53EC182B03F08FFCABE7FE
:105730000000F07F00000000182D4454FB210940B8
:10574000182D4454FB2109C0182D4454FB21F9BFE6
:10575000182D4454FB21F93F6A400000000000006E
:105760000000000000000000075C143326A6A13CE6
:1057700010EE100A10B510EE901A4FF0684202EBCE
:1057800040032DED028BB3F1654F3CBF02EB4102AC
:10579000B2F1654F7CD200BFC0F3C753C1F3C7520B
:1057A0009A1A1B2A09DD10F0004F14BF9FED6E0AF4
:1057B0009FED6E0ABDEC028B10BD12F11A0F1BDAC1
:1057C00011F0004F09D010F0004F0CBF9FED680A98
:1057D0009FED680ABDEC028B10BD80EE208A18EEAA
:1057E000100AFFF79EFB042808BF00F0E5F9B0EEB1
:1057F000480ABDEC028B10BD4200B2EB410F37D915
:1058000010F0004F19BFDFED5C1A9FED5C1ADFED61
:105810005C1A9FED5C1AB0EE602A0A46F1EE400A6F
:1058200080F00041B0EE420A10460A1A5200B2F16E
:10583000807F34D2484010F0004FDFED532A9FEDB7
:10584000533A1DBFBEEE002A71EEE21A31EE431A42
:10585000B6EE002A04BF71EEA21A31EE031AF0EE82
:10586000402A42EE602A40EE020A82EEA02A18E0A8
:1058700011F0004F04BF9FED461AF0EE411AD4D04C
:1058800010F0004F1CBFDFED431A9FED431A00E0FC
:1058900026E004BFDFED411A9FED411AC5E780EE17
:1058A000202A22EE020ADFED3F0ADFED3F2ABDEC9F
:1058B000028B40EE202ADFED3D0A40EE220ADFEDAA
:1058C0003C2A40EE202ADFED3B0A40EE220A22EE7F
:1058D000000A00EE201A31EE020A30EE210A10BD55
:1058E0004FF07F42B2EB400F28BFB2EB410F05D221
:1058F000BDEC028BBDE8104000F05AB940EA01034C
:105900005B0008BF41F0FF410BD0B2EB400F08BF76
:10591000B2EB410F08D120F0804000EE100A21F0D8
:10592000804100EE901A37E7B2EB400F12BF5FEAFA
:10593000410240F0FF4001F000413FF42DAF4A002A
:1059400092EA40033FF528AF002AACBF9FED1A1A38
:105950009FED1A1A20EE010A60EE810A10EE100A7D
:1059600010EE901A18E70000DB0FC9BFDB0FC93F2C
:10597000DB0F4940DB0F49C00000C9BF22AAFDB9B7
:105980000000C93F22AAFD390060ED3EC30ACE37B0
:1059900000000000000049C022AA7DBA0000494072
:1059A00022AA7D3A2DAD65BD8FB8D53D0FB511BE8C
:1059B00061C84C3EA8AAAABE0000804F0000802FFC
:1059C0002DED020B019820F0004001909DED000BA1
:1059D00002B0704700B52DED048BB0EE409AF0EEAA
:1059E000609A83B051EC190B03F03CFB41EC180BAF
:1059F00018EE100A18EE901A8DED008B002818BFD3
:105A00000120084320F00040C0F17F6000F1E04039
:105A1000C00F14D019EE101A19EE900A8DED009BEC
:105A2000002918BF0121084320F00040C0F17F6029
:105A300000F1E040C00F04BF0120FAF753FDB0EEC3
:105A4000480A03B0F0EE680ABDEC048B00BD70B5E7
:105A500004462DED028B4D1E00EBC500B0EE408AD2
:105A6000F0EE608A90ED000B35F0060017D053EC95
:105A7000182B51EC100B03F0EBF941EC100B6D1EE1
:105A800004EBC50090ED001B51EC100B53EC112BF7
:105A900002F07EFF41EC100B35F00600E7D1022D3D
:105AA00036D0042D1CD0062D1CBFBDEC028B70BD62
:105AB00053EC182B51EC100B03F0CAF994ED0A1BB0
:105AC00053EC112B02F064FF53EC182B03F0C0F9D8
:105AD00094ED081B53EC112B02F05AFF41EC100B14
